{
  "contractName": "Remittances",
  "abi": [
    {
      "constant": true,
      "inputs": [
        {
          "name": "",
          "type": "bytes32"
        }
      ],
      "name": "remittances",
      "outputs": [
        {
          "name": "amount",
          "type": "uint256"
        },
        {
          "name": "exchangerAddressHash",
          "type": "bytes32"
        },
        {
          "name": "paid",
          "type": "bool"
        }
      ],
      "payable": false,
      "stateMutability": "view",
      "type": "function"
    },
    {
      "anonymous": false,
      "inputs": [
        {
          "indexed": false,
          "name": "amount",
          "type": "uint256"
        },
        {
          "indexed": false,
          "name": "secretsHash",
          "type": "bytes32"
        },
        {
          "indexed": false,
          "name": "exchangerAddressHash",
          "type": "bytes32"
        }
      ],
      "name": "LogRemittanceSent",
      "type": "event"
    },
    {
      "anonymous": false,
      "inputs": [
        {
          "indexed": false,
          "name": "amount",
          "type": "uint256"
        },
        {
          "indexed": false,
          "name": "secretsHash",
          "type": "bytes32"
        },
        {
          "indexed": false,
          "name": "exchanger",
          "type": "address"
        }
      ],
      "name": "LogRemittancePaid",
      "type": "event"
    },
    {
      "constant": false,
      "inputs": [],
      "name": "Remmitances",
      "outputs": [],
      "payable": false,
      "stateMutability": "nonpayable",
      "type": "function"
    },
    {
      "constant": false,
      "inputs": [
        {
          "name": "secretsHash",
          "type": "bytes32"
        },
        {
          "name": "exchangerAddressHash",
          "type": "bytes32"
        }
      ],
      "name": "sendRemittance",
      "outputs": [
        {
          "name": "success",
          "type": "bool"
        }
      ],
      "payable": true,
      "stateMutability": "payable",
      "type": "function"
    },
    {
      "constant": false,
      "inputs": [
        {
          "name": "secret1",
          "type": "string"
        },
        {
          "name": "secret2",
          "type": "string"
        }
      ],
      "name": "pay",
      "outputs": [
        {
          "name": "success",
          "type": "bool"
        }
      ],
      "payable": false,
      "stateMutability": "nonpayable",
      "type": "function"
    }
  ],
  "bytecode": "0x6060604052341561000f57600080fd5b6106618061001e6000396000f300606060405260043610610062576000357c0100000000000000000000000000000000000000000000000000000000900463ffffffff1680630e2e184b1461006757806345513d29146100a85780639c922d2a146100bd578063f46e588c14610112575b600080fd5b61008e600480803560001916906020019091908035600019169060200190919050506101ca565b604051808215151515815260200191505060405180910390f35b34156100b357600080fd5b6100bb610325565b005b34156100c857600080fd5b6100e2600480803560001916906020019091905050610327565b60405180848152602001836000191660001916815260200182151515158152602001935050505060405180910390f35b341561011d57600080fd5b6101b0600480803590602001908201803590602001908080601f0160208091040260200160405190810160405280939291908181526020018383808284378201915050505050509190803590602001908201803590602001908080601f0160208091040260200160405190810160405280939291908181526020018383808284378201915050505050509190505061035e565b604051808215151515815260200191505060405180910390f35b6000803414156101d957600080fd5b6000600102600019166000808560001916600019168152602001908152602001600020600101546000191614151561021057600080fd5b60606040519081016040528034815260200183600019168152602001600015158152506000808560001916600019168152602001908152602001600020600082015181600001556020820151816001019060001916905560408201518160020160006101000a81548160ff0219169083151502179055509050507face1d3e2bfe48ec3fd5e60950fe72959cf66008cd1b40c6d49da7ee1ef8ae7f9600080856000191660001916815260200190815260200160002060000154846000808760001916600019168152602001908152602001600020600101546040518084815260200183600019166000191681526020018260001916600019168152602001935050505060405180910390a16001905092915050565b565b60006020528060005260406000206000915090508060000154908060010154908060020160009054906101000a900460ff16905083565b60008061036961060e565b84846040518083805190602001908083835b6020831015156103a0578051825260208201915060208101905060208303925061037b565b6001836020036101000a03801982511681845116808217855250505050505090500182805190602001908083835b6020831015156103f357805182526020820191506020810190506020830392506103ce565b6001836020036101000a0380198251168184511680821785525050505050509050019250505060405180910390209150600080836000191660001916815260200190815260200160002060606040519081016040529081600082015481526020016001820154600019166000191681526020016002820160009054906101000a900460ff1615151515815250509050600060010260001916816020015160001916141561049f57600080fd5b8060400151156104ae57600080fd5b33604051808273ffffffffffffffffffffffffffffffffffffffff1673ffffffffffffffffffffffffffffffffffffffff166c0100000000000000000000000002815260140191505060405180910390206000191681602001516000191614151561051857600080fd5b60018160400190151590811515815250503373ffffffffffffffffffffffffffffffffffffffff166108fc82600001519081150290604051600060405180830381858888f19350505050151561058257600081604001901515908115158152505060009250610606565b7f6302d1e3fe446bba2f9b6de1fae425ae6585b1acbeab7b02b950e636986b9ca1816000015183336040518084815260200183600019166000191681526020018273ffffffffffffffffffffffffffffffffffffffff1673ffffffffffffffffffffffffffffffffffffffff168152602001935050505060405180910390a1600192505b505092915050565b606060405190810160405280600081526020016000801916815260200160001515815250905600a165627a7a72305820690ef1c2dc2bcaacf47662fd5176a76ddcdd1cfce8ed4f698360b13a0789bd2b0029",
  "source": "pragma solidity ^0.4.4;\n\ncontract Remittances {\n\n\tstruct Remittance {\n\t\tuint amount;\n\t\tbytes32 exchangerAddressHash;\n\t\tbool paid;\n\t}\n\n\t/* use the hash of the secrets as key of the remittance! */\n\tmapping (bytes32 => Remittance) public remittances;\n\n\tevent LogRemittanceSent(uint amount, bytes32 secretsHash, bytes32 exchangerAddressHash);\n\tevent LogRemittancePaid(uint amount, bytes32 secretsHash, address exchanger);\n\n\tfunction Remmitances()\t{\n\t}\n\n\tfunction sendRemittance(\n\t\tbytes32 secretsHash,\n\t\tbytes32 exchangerAddressHash)\n\t\tpayable\n\t\treturns (bool success)\n\t{\n\n\t\t/* dont be cheap */\n\t\tif(msg.value == 0) throw;\n\n\t\t/* check that secrets have not been used before.\n\t\t\tempty struct cannot be detected, so use one property to check\n\t\t\tthis key (and pair of secrets) have not been used before */\n\t\tif (remittances[secretsHash].exchangerAddressHash != bytes32(0)) throw;\n\n\t\t/* store the remittance data using the secrets hash as key */\n\t\tremittances[secretsHash] = Remittance(msg.value, exchangerAddressHash, false);\n\n\t\tLogRemittanceSent(\n\t\t    remittances[secretsHash].amount,\n\t\t    secretsHash,\n\t\t    remittances[secretsHash].exchangerAddressHash);\n\n\t\treturn true;\n\t}\n\n\tfunction pay(\n\t\tstring secret1,\n\t\tstring secret2)\n\t\treturns (bool success)\n\t{\n\n\t\t/* get remittance data */\n\t\tbytes32 secretsHash = keccak256(secret1, secret2);\n\t\tRemittance memory remittance = remittances[secretsHash];\n\t\tif (remittance.exchangerAddressHash == bytes32(0)) throw;\n\n\t\t/* check is not paid */\n\t\tif (remittance.paid) throw;\n\n\t\t/* check exchanger is calling */\n\t\tif (remittance.exchangerAddressHash != keccak256(msg.sender)) throw;\n\n \t\tremittance.paid = true;\n\t\tif(!msg.sender.send(remittance.amount)) {\n\t\t  remittance.paid = false;\n\t\t\treturn false;\n\t\t}\n\n\t\tLogRemittancePaid(\n\t\t    remittance.amount,\n\t\t    secretsHash,\n\t\t    msg.sender);\n\n\t\treturn true;\n\t}\n\n}\n",
  "sourcePath": "/home/giulio/DAPPS/remittance/contracts/remmitance.sol",
  "compiler": {
    "name": "solc",
    "version": "0.4.19+commit.c4cbbb05.Emscripten.clang"
  },
  "schemaVersion": "1.0.1",
  "updatedAt": "2018-03-14T21:15:54.891Z"
}